:020000040800F2
:10000000D00700204D0200082F1200082B12000814
:100010002D120008FD020008D9160008000000009B
:100020000000000000000000000000005312000863
:10003000FF0200080000000051120008D912000859
:1000400067020008670200086702000867020008EC
:1000500067020008670200086702000867020008DC
:1000600067020008670200086702000867020008CC
:1000700067020008670200086702000867020008BC
:1000800067020008670200086702000867020008AC
:10009000670200086702000867020008670200089C
:1000A000670200086702000867020008670200088C
:1000B00067020008311300086702000867020008A1
:1000C000670200086702000867020008670200086C
:1000D00067020008AD160008670200086702000802
:1000E000670200086702000867020008670200084C
:1000F000670200086702000867020008670200083C
:10010000670200086702000867020008670200082B
:10011000670200086702000867020008670200081B
:10012000670200086702000867020008670200080B
:1001300067020008670200086702000867020008FB
:1001400067020008670200086702000867020008EB
:1001500067020008670200086702000867020008DB
:1001600067020008670200086702000867020008CB
:10017000670200086702000867020008000000002C
:1001800067020008670200086702000867020008AB
:10019000670200086702000867020008670200089B
:1001A00067020008670200086702000800F002F812
:1001B00000F03CF80AA090E8000C82448344AAF1C5
:1001C0000107DA4501D100F031F8AFF2090EBAE8C3
:1001D0000F0013F0010F18BFFB1A43F0010318477B
:1001E000241D0000441D0000103A24BF78C878C1C7
:1001F000FAD8520724BF30C830C144BF04680C602D
:10020000704700000023002400250026103A28BF74
:1002100078C1FBD8520728BF30C148BF0B60704778
:100220001FB501F062FE1FBD10B510BD00F033F820
:100230001146FFF7F5FF01F079FA00F051F803B429
:10024000FFF7F2FF03BC01F048FA000009488047BD
:1002500009480047FEE7FEE7FEE7FEE7FEE7FEE7A8
:10026000FEE7FEE7FEE7FEE704480549054A064BC0
:1002700070470000DD120008AD010008D001002029
:10028000D0070020D0030020D00300207047704723
:10029000704770477047754600F02CF8AE46050071
:1002A0006946534620F00700854618B020B5FFF791
:1002B000DBFFBDE820404FF000064FF000074FF095
:1002C00000084FF0000B21F00701AC46ACE8C00974
:1002D000ACE8C009ACE8C009ACE8C0098D4670477D
:1002E00010B50446AFF300802046BDE81040FFF78C
:1002F000A6BF00000048704770010020FEE770476D
:10030000104810B5016886B041F002010160006834
:10031000012100F0020005900320CDE90210CDE993
:100320000001094C6946204600F010F801221146F0
:10033000204600F0FDF801220221204600F0F8F8E6
:1003400006B010BD30380240000402402DE9F84FDD
:10035000DFF8A091002209F1040A0AF1040B4FF022
:100360000F080BF1040E01260B6896403340B34290
:1003700071D14C68022C01D0122C11D1D40800EBA1
:1003800084073D6A5407E40E08FA04FC25EA0C05CC
:10039000D1F810C00CFA04FC4CEA050CC7F820C0D8
:1003A00007685400032591F804C0A5400CF0030C25
:1003B000AF430CFA04FC4CEA070CC0F800C04F68CD
:1003C000012F05D0022F03D0112F01D0122F11D1F0
:1003D0008768D1F80CC0AF430CFA04FC4CEA070C58
:1003E000C0F808C04768B7430E79C6F300169640B8
:1003F0003E434660C668AE438D68A5403543C56040
:100400004C68E4006FD53C4C256845F48045256078
:10041000246822F0030504F480440094374C2E191C
:10042000D6F808789407250F08FA05F4A743344C4A
:10043000A04201D100242EE0324CA04201D101247F
:1004400029E0314CA04201D1022424E02F4CA042EB
:1004500002D103241FE046E02D4CA04201D1042428
:1004600019E02C4CA04201D1052414E02A4CA042F2
:1004700001D106240FE0294CA04201D107240AE053
:10048000274CA04201D1082405E0264CA04201D10E
:10049000092400E00A24AC403C43C6F80848D9F8D7
:1004A00000404D464E689C43F60300D51C432C602B
:1004B000DAF8004055464E689C43B60300D51C430D
:1004C0002C60DBF800405D464E689C43F60200D588
:1004D0001C432C60DEF8004075464E689C43B60213
:1004E00000D51C432C60521C102AFFF43CAFBDE821
:1004F000F88F0000003C01404438024000300140C9
:10050000000002400004024000080240000C0240CB
:10051000001002400014024000180240001C02407B
:10052000002002400024024042694A404261704774
:100530000AB1816170470904FBE7000001480068C7
:10054000704700001C00002002480168491C01603F
:10055000704700001C0000200B4810B5016841F4F2
:1005600000710160016841F480610160016841F43B
:1005700080710160052000F047F80F2000F006F8B8
:1005800000F015F8002010BD003C024010B50446F4
:1005900000F094F94FF47A71B0FBF1F000F0A8FB91
:1005A00000222146501E00F00FF8002010BD7047B9
:1005B00000F01F02012191404009800000F1E0207D
:1005C000C0F8001170470000F0B40E4B1B68C3F375
:1005D0000223C3F10704042C00D904241D1D072D98
:1005E00001D2002300E0DB1E012606FA04F56D1E91
:1005F0000D409D409E40761E164045EA0601F0BC27
:1006000000F016BE0CED00E0064A00F0070110688D
:100610004FF6FF03184040EA0120034908431060E9
:10062000704700000CED00E00000FA052DE9F843EA
:100630001D48016841F0805101600068012700F009
:1006400080500090380490FAA0F0DFF86080B0FA93
:1006500080F048F82070FFF771FF04464FF47A7578
:10066000134E04E0FFF76AFF001BA84213D870681E
:10067000C003F7D54FF4003090FAA0F0B0FA80F044
:1006800048F82070FFF75AFF044607E0FFF756FFCF
:10069000001BA84202D90320BDE8F88370688003DC
:1006A000F4D50020F8E700004038024000000E4278
:1006B000007000402DE9F05FDFF8F8A104460F4616
:1006C000DAF80000DFF8F08100F00F02C8B27A49D2
:1006D000814641F2883608F10808BA4261D20246E2
:1006E0008AF80020DAF8000000F00F00B8427DD14F
:1006F0002078800707D5D8F80020A36822F0F00200
:100700001A43C8F800202078C0072DD0606801285F
:100710001AD002281BD0032819D00968890700299C
:1007200064DAD8F80010474621F003010143C8F805
:100730000010FFF703FF0546606801280FD002286C
:1007400018D003281CD027E009688903E7E7096867
:100750008901E4E7FFF7F2FE401BB04258D8386841
:10076000C0F381000128F5D188E0FFF7E7FE401BC8
:10077000B0424DD83868C0F381000228F5D17DE041
:100780003868FFF7DBFE401BB042F9D940E0FFF7C5
:10079000D5FE401BB0423BD8386810F00C0FF6D1A4
:1007A0006CE02078800707D5D8F80020A36822F0F5
:1007B000F0021A43C8F800202078C0074CD06068C7
:1007C000012828D0022829D0032827D009688907C2
:1007D000002949DAD8F8002022F003020243C8F8C1
:1007E0000020FFF7ABFE0546606800E03CE0012812
:1007F0001DD0022829D0032838D0B3464646306899
:1008000010F00C0F28D0FFF799FE411B5945F6D97F
:100810000320BDE8F09F09688903D9E709688901C9
:10082000D6E7FFF78BFE411B594502D9F0E7B346E7
:1008300046463068C0F381000128F2D10CE0FFF792
:100840007DFE411B594502D9E2E7B3464646306872
:10085000C0F381000228F2D18AF80090DAF8000093
:1008600000F00F00B84209D00120D2E744462068CA
:10087000FFF764FE401BB042F9D9C9E72078400772
:1008800007D5D8F80010E26821F4E0511143C8F808
:1008900000102078000708D5D8F80010226921F44C
:1008A000604141EAC201C8F800100F20FFF76EFE58
:1008B0000020AEE7003C02400038024010B500F0D6
:1008C00043F808490968F02292FAA2F201F0F00117
:1008D000B2FA82F2D140044A515CC8400349086030
:1008E00010BD000008380240F41E00080800002077
:1008F00010B5FFF7E3FF074909684FF4E05292FA99
:10090000A2F201F4E051B2FA82F2D140024A515C03
:10091000C84010BD08380240F41E000810B5FFF7AB
:10092000CDFF074909684FF4604292FAA2F201F440
:100930006041B2FA82F2D140024A515CC84010BD17
:1009400008380240F41E000830B51948006810F05D
:100950000C01184812D0184C04290ED008290DD1CA
:10096000134A121F1168136801F03F015D0247F638
:10097000C07304D5B4FBF1F003E0204630BDB0FBFA
:10098000F1F01168194093FAA3F3B3FA83F3D94055
:10099000484311684FF4403292FAA2F201F4403118
:1009A000B2FA82F2D140491C4900B0FBF1F030BDEF
:1009B000083802400024F40040787D012DE9F84F0A
:1009C00004460078DFF8FCA2BF4DC0074FF00006D8
:1009D00048D0DAF800105046C1F38101012908D04F
:1009E0000068C0F3810002280AD1281D0068400277
:1009F00006D52868800335D56068002873D031E0BB
:100A0000DFF8C49209F1020989F80060FFF796FD4A
:100A1000074641F2883804E0FFF790FDC11B4145CD
:100A20007AD828688003F7D4207989F800006068B4
:100A300060B1FFF783FD074604E0FFF77FFDC11BB0
:100A40004145EDD828688003F7D50BE0FFF776FD28
:100A5000074604E0FFF772FDC11B4145E0D8286856
:100A60008003F7D42078DFF86492800744D5DAF861
:100A70000010504611F00C0F4FF0F80809D0006834
:100A8000C0F3810002280BD18E48001F006840028D
:100A900006D42868800714D5E068012823D110E027
:100AA000E068D0B10120C9F80000FFF747FD074614
:100AB00004E0FFF743FDC01B6428B1D82868800715
:100AC000F7D5286898FAA8F22169B2FA82F220F0E4
:100AD000F8009140084328600EE0C9F80060FFF775
:100AE0002DFD074605E0EAE0FFF728FDC01B64285E
:100AF00012D828688007F7D42078000725D5DFF8BA
:100B0000C4817348616908F16C0881B101210160F9
:100B1000FFF714FD074605E07EE0FFF70FFDC01B61
:100B2000642879D8D8F800008007F6D50DE0066073
:100B3000FFF704FD074604E0FFF700FDC01B642833
:100B40006AD8D8F800008007F6D42078400753D53B
:100B50005C483830016841F0805101600068DFF87E
:100B6000748100F080500090D8F8001041F480713A
:100B7000C8F80010FFF7E2FC074604E0FFF7DEFCD0
:100B8000C01B642848D8D8F80000C005F6D5DFF8A7
:100B900034B10BF1680B8BF80060FFF7CFFC074610
:100BA00041F2883804E0FFF7C9FCC11B41457ED8FB
:100BB000DBF800008007F6D4207A8BF80000A068EC
:100BC00068B1FFF7BBFC074604E0FFF7B7FCC11BA9
:100BD00041456CD8DBF800008007F6D50CE0FFF744
:100BE000ADFC074604E0FFF7A9FCC11B41455ED8F8
:100BF000DBF800008007F6D4A069E8B3DAF800104B
:100C0000C1F3810102295AD0022806D0C9F86060D8
:100C1000FFF794FC04464DE049E04F46C9F8606098
:100C2000FFF78CFC064604E0FFF788FC801B642875
:100C30003DD828688001F7D4D4E90701084347F676
:100C4000C07191FAA1F1626AB1FA81F18A40A16A98
:100C50004FF0FF3303EB51014FF4403393FAA3F30A
:100C6000B3FA83F399400A4310434FF0706292FA4B
:100C7000A2F2B2FA82F200E01FE0E16A914008437A
:100C80001049091F086001203866FFF757FC044629
:100C900004E0FFF753FC001B642808D82868800193
:100CA000F7D50AE0FFF74AFC001B642802D90320AD
:100CB000BDE8F88F28688001F4D40020F8E701200F
:100CC000F6E70000083802400038024000004742C2
:100CD000800E4742007000404FF0E0210428086970
:100CE00003D020F004000861704740F00400FAE7E8
:100CF00010B5401EB0F1807F01D3012010BD4FF030
:100D0000E02460610F21601700F092FA0020A061DA
:100D100007202061002010BD7047704710B5040007
:100D200003D094F8390010B107E0012010BD002075
:100D300084F83800204600F00DF8022084F83900CD
:100D4000211D206800F010FB012084F839000020EC
:100D500010BD000008B500680B49884212D10B484D
:100D6000016841F0020101600068032200F0020006
:100D7000009001211D20FFF727FCBDE808401D2041
:100D8000FFF716BC08BD00000004004040380240D8
:100D90000168CA6842F00102CA600068016841F057
:100DA00001010160002070470168CA6822F0010259
:100DB000CA600068016A41F21112114207D1016A4A
:100DC0009210114203D1016821F00101016000205D
:100DD0007047704770B50446006801694FF0000520
:100DE000C943890715D4C168C943890711D4E91ECD
:100DF000016101202076206880698007204602D0AA
:100E0000FFF7E7FF04E000F098F8204600F096F8BE
:100E1000257620680169C943490717D4C168C943C9
:100E2000490713D46FF00401016102202076206885
:100E3000806910F4407F204602D0FFF7CAFF04E02B
:100E400000F07BF8204600F079F8257620680169EB
:100E5000C943090716D4C168C943090712D46FF002
:100E600008010161042020762068C06980072046BF
:100E700002D0FFF7AEFF04E000F05FF8204600F07C
:100E80005DF8257620680169C943C90617D4C16891
:100E9000C943C90613D46FF0100101610820207600
:100EA0002068C06910F4407F204602D0FFF791FF10
:100EB00004E000F042F8204600F040F82576206873
:100EC0000169C943C90708D1C168C943C90704D129
:100ED000891E0161204600F033F820680169C9438A
:100EE000090609D4C168C943090605D46FF0800119
:100EF00001612046FFF710FF20680169C9434906D8
:100F000009D4C168C943490605D46FF040010161A5
:100F1000204600F03DF820680169C94389060BD4DA
:100F2000C168C943890607D46FF0200101612046DA
:100F3000BDE87040FFF7F1BE70BD7047704700001C
:100F400070B50F4988420AD10E4D0F4C286820B168
:100F500020780E4E012803D009E00020207070BDDB
:100F600002213046FFF7E0FA2868401E286020780A
:100F70000228F4D13046BDE870400221FFF7D4BA10
:100F8000340100200400002028000020000402405A
:100F90007047704790F83900704738B501680446CB
:100FA0000868CA68C0F3000002F4807238B132B138
:100FB000086848680090E06B40F00100E063086852
:100FC0004A69C0F3400002F0010238B132B108684A
:100FD00048680090E06B40F00400E06308684A69EC
:100FE000C0F3800002F0010238B132B108684868ED
:100FF0000090E06B40F00200E06308684A69C0F3CB
:10100000C00002F0010238B132B1086848680090AF
:10101000E06B40F00800E0630868C968C0F3401066
:1010200001F0200118B111B1204600F0FDF920684F
:101030000168C068C1F3C01100F0800019B110B19F
:10104000204600F0FFFA21680868CA68C0F38010E3
:1010500002F04002012568B162B1CA68204622F060
:101060004002CA6094F8391032290CD080F8395007
:1010700000F0DAF8E06B002804D084F839502046FC
:10108000FFF787FF38BD222180F83910F0E770B5EF
:10109000040004D094F83900002510B106E00120C6
:1010A00070BD84F83850204600F020F8022084F803
:1010B00039002068C16821F40051C160204600F069
:1010C00007FA2068016921F49041016120684169B3
:1010D00021F02A0141612068C16841F40051C160DA
:1010E000E563012084F83900002070BD10B5006868
:1010F0001A4986B088422FD11948016841F0010190
:101100000160006800F00100059015481430016886
:1011100041F0100101600068012100F0100005900D
:101120004FF4007000900220CDE9010103900720E8
:101130000C4C049069462046FFF708F921150091F0
:1011400069462046FFF702F92520FFF731FA03220E
:1011500011462520FFF738FA06B010BD00100140F7
:10116000303802400000024090F83930012B01D0A5
:10117000122B2BD131B32AB390F83830012B25D064
:10118000012380F8383081628285C2850022C263E3
:1011900090F83910122917D0222180F839100168EF
:1011A000CB6843F48073CB6001684B6943F0010363
:1011B0004B6180F838200068C16841F02001C160AF
:1011C00000207047012070473221E6E70220704777
:1011D00030B50068114988420CD1114A5088010489
:1011E00008D41146440409784FF0000306D50A29B3
:1011F00001D0538030BD40F400400DE00D2909D0EE
:10120000C0F30D04074D401C80B229555080C728FB
:10121000EFD830BD40F48040508030BD0010014018
:10122000240000202C0000207047FEE7FEE77047F6
:101230000907090E002806DA00F00F0000F1E0208F
:1012400080F8141D704700F1E02080F8001470470A
:101250007047704770B51E4C92B00025266846F066
:1012600080562660246804F080541194194C266836
:1012700046F44046266024680DF1240C04F44044F2
:101280001194012400940194022406948CE80D002A
:101290006605CDE907616846FFF790FB00B1FEE700
:1012A000FFF7C4F900B1FEE70CA90F2081E8310077
:1012B0004FF4A0500F904FF48050109005210CA8CF
:1012C000FFF7F8F9002800D0FEE712B070BD00006B
:1012D0004038024000700040FFF736B910480168FE
:1012E00041F4700101600F48016841F001010160A3
:1012F0000C4A00210832116002680B4B1A40026050
:10130000031D0A4A1A60026822F48022026005481E
:101310000C300160024958068039086070470000AF
:1013200088ED00E000380240FFFFF6FE1030002498
:101330000148FFF74FBD000034010020094A10B5F5
:10134000074BC2E900310021C2E9021010461161C9
:10135000FFF7E4FCBDE810400248FFF719BD0000AC
:101360000004004034010020F0B50268234D244EF3
:10137000244FDFF894C0254B4FF0804EA84209D08F
:10138000704507D0B04205D0B84203D0604501D0C7
:10139000984203D122F070044A682243A8421BD02D
:1013A000704519D0B04217D0B84215D0604513D05F
:1013B000984211D0164CA0420ED0164CA0420BD031
:1013C000154CA04208D0154CA04205D0144CA042A8
:1013D00002D0144CA04203D122F44074CA682243C4
:1013E00002608A68C2620A688262A84201D098429A
:1013F00001D10969016301214161F0BD0000014093
:101400000004004000080040000C004000040140BF
:1014100000400140004401400048014000180040E5
:10142000001C00400020004010B590F8391022291F
:1014300003D0322901D0022010BD8168B1F5805F50
:1014400011D00169002901681FD0496801F07F03AC
:10145000816A4A1C82620B70C18D491E0904090C05
:10146000C18518D02FE00269816A002A026852689B
:1014700005D0D2B20A80816A491C8162ECE7C2F3CE
:1014800008020A80816A891CF7E74A68816A4B1C56
:1014900083620A70E0E70168CA6822F02002CA602D
:1014A00090F83910322910D00168CA6822F480728D
:1014B000CA6001684A6922F001024A61012180F88C
:1014C0003910FFF785FE002010BD1221F7E700005C
:1014D0002DE9F041044600680169E26821F44051B9
:1014E0000A4302612068C16849F20C629143236992
:1014F000A268E5691A4363692B431A430A43C26031
:101500002068416921F44072A16911434161E06999
:1015100064263225B0F5004F484A494920681DD05D
:10152000884201D0904269D1FFF7F8F900EBC00181
:1015300001EB00106168B0468900B0FBF1F1B1FB2E
:10154000F8F6FFF7EBF900EBC00101EB0010616862
:101550008900B0FBF1F7FFF7E1F968E0884201D0BC
:10156000904219D1FFF7DAF900EBC00101EB00104E
:101570006168B0464900B0FBF1F1B1FBF8F6FFF746
:10158000CDF900EBC00101EB001061684900B0FB30
:10159000F1F7FFF7C3F918E0FFF7AAF900EBC00174
:1015A00001EB00106168B0464900B0FBF1F1B1FBFE
:1015B000F8F6FFF79DF900EBC00101EB0010616840
:1015C0004900B0FBF1F7FFF793F900EBC00101EB25
:1015D000001061684900B0FBF1F1B1FBF8F06FF069
:1015E0001801484307EB800005EB0011B1FBF8F050
:1015F000216866F31F108860BDE8F081FFF778F975
:1016000000EBC00101EB00106168B0468900B0FB3F
:10161000F1F1B1FBF8F6FFF76BF900EBC00101EB5C
:10162000001061688900B0FBF1F7FFF761F900EB8A
:10163000C00101EB001061688900CCE70014014093
:101640000010014090F83910122903D0322901D03E
:10165000022070478168B1F5805F016A0BD04A1C97
:101660000262026809785160C18C491E0904090CA4
:10167000C1840ED017E009880268C1F308015160E7
:1016800001690029016A02D0491C0162ECE7891C4A
:10169000FBE70168CA6822F08002CA600068C1687E
:1016A00041F04001C16000207047000010B50848BB
:1016B000FFF773FC0648FFF76DFC0128FAD1012201
:1016C00004490348FFF750FD0028F8D110BD000081
:1016D000F400002024000020FEE7704710B510EE53
:1016E000100A00F091FB9FED081B53EC112B00F04A
:1016F00007F99FED071B53EC112B00F087FABDE8AB
:10170000104000F055BA0000CDCCCCCCCCCCEC3F96
:10171000000000000000304010B504460420FFF730
:10172000DBFA0148046010BD20000020FEF714FF22
:101730000823022219214FF4B470FFF78BFDB42067
:10174000FFF7EAFF4FF4E13000F0BEF8FEF7D8FDF6
:10175000264E0027384637707770B77000F04EF885
:10176000B178707800F056F8214CDFF88880B8F82E
:101770000000020428D5C0F30D0027542078462825
:101780001FD1607846281CD1A078E378303800EB70
:1017900080006FF02F0202EB400018443070207977
:1017A0006379303800EB800002EB40001844B070E1
:1017B000A079E379303800EB800002EB4000184458
:1017C0007070A8F8007001E0002DD0D1307800F0E2
:1017D00015F8B178707800F01DF89FED070AFFF753
:1017E0007DFF00F063F80125C1E700000000002044
:1017F0002C000020260000200000B4430100044813
:1018000003D000220121FEF793BE0122FAE7000077
:10181000000402400A4640F2E731012A01D07AB3BF
:1018200036E00B2834D2DFE800F033060A0C10143F
:10183000181C20242800592040F24B4132E0082097
:1018400030E0082040F283312CE0082040F21F31C4
:1018500028E0082040F2BB2124E0082040F2572174
:1018600020E0082040F2F3111CE0082040F28F1124
:1018700018E0082040F22B1114E00820C72111E0E5
:10188000FFE728B1012806D0022808D0032808D095
:101890000548FFF789BA592040F2CF7102E059207C
:1018A00000E03B20FFF74ABD3401002004490A78DC
:1018B000002A04D1034A40001060012008707047DC
:1018C00028000020040000200B4910B5094AC1E996
:1018D000002000208860C860086188610C20486191
:1018E0000846FFF7D4FBBDE8104001220349024837
:1018F000FFF73ABC00100140F40000202400002053
:101900002DE9C04130B4DFF8A0C23CEA111418BF81
:101910003CEA131400F0EC8081EA03051CEA111480
:1019200044EAD57418BF1CEA131500F0C780A4EB75
:1019300005044FF0004545EAC12145EAC32341EAC9
:10194000505143EA525304F17F74994204F5003434
:101950004FEAC0204FEAC22208BF904200F09C80AC
:101960004FEA13650FF24016765D4FEA134506FB0A
:1019700005F7C7F1807706FB07F74FEAD737A7FBD4
:1019800003687642C8F58038A7FB06CE38BFA8F1B9
:10199000010807FB08E64FF0000EA6FB028CE6FBF1
:1019A00003CEDCF1000CCEF1004E38BFAEF1010EDB
:1019B000A6FB0C584FF000074FF00005E6FB0E8722
:1019C000A1FB08C6A0FB07CE16EB0E0645F10005ED
:1019D000E1FB076515F1E04E7EBFA4F580345FEAB8
:1019E00046066D4116F1800745F100054FEA1727BD
:1019F0004FEA066647EA0567A6F1DE46B6F1805F64
:101A00004FEA15251FD9384624F0010C05EBC471A7
:101A1000BCF1FE6F01EB0C1102D8F0BCBDE80081F7
:101A200024425CBF01F5801E9EEAC47F02D4F0BC54
:101A3000BDE80081244238D4F0BCA1F1C041BDE82A
:101A4000004100F0DBB94FEAD22242EA43524FEAAA
:101A5000D323A7FB02864FEAD02040EA415007FB80
:101A600003661EEA0E0F4FEAD12105FB026658BF3E
:101A7000A6EB0056B6EB00564FEA520E4EEAC37E76
:101A800018EB0E0E56EB530EBDD518EB02085E4157
:101A90007F1C55F10005B6E74FF480154FF00007A5
:101AA0004FF000064FF00008ADE7F0BC4FF000002B
:101AB00001F1C04101F00041BDE8008111EA0C1FB5
:101AC0000CEA131500D00CE013EA0C1F00F025807F
:101AD0004FF00000F0BC81EA030101F00041BDE8D5
:101AE0000081F0BCBDE8004181EA030100F086B945
:101AF000F0BCBDE8004170B500F032F9097EFC3E53
:101B000000F007B881EA03014FF0000001F0004146
:101B1000704781EA030100F071B9F0BCBDE80041F3
:101B20004FF0000021497047FFFDFBF9F7F5F4F293
:101B3000F0EEEDEBE9E8E6E4E3E1E0DEDDDBDAD868
:101B4000D7D5D4D3D1D0CFCDCCCBCAC8C7C6C5C4C6
:101B5000C2C1C0BFBEBDBCBBBAB9B8B7B6B5B4B3DD
:101B6000B2B1B0AFAEADACABAAA9A8A8A7A6A5A4C8
:101B7000A3A3A2A1A09F9F9E9D9C9C9B9A9999988C
:101B80009797969595949393929191908F8F8E8E2F
:101B90008D8C8C8B8B8A89898888878786858584BC
:101BA00084838382828181800000FF070000F87FA8
:101BB0004FEA1153A3F58063D3F11E03A8BFD3F1FD
:101BC000200C08DB4FF0004242EAC12252EA505298
:101BD00032FA03F0704709420BD4102BC4BF002027
:101BE000704703F5787CBCF1FF3F05D04FF0FF3024
:101BF00070474FF00000704770B500F0B1F800BFBB
:101C00004992248000207047F0E70000DFF848C1C7
:101C100070B51CEA111E1EBF1CEA13159EEA0C0FBC
:101C200095EA0C0F00F06F8081EA030423EA4C135D
:101C30004EEAD47E21EA4C1141F4801143F4801322
:101C4000AE44A1FB024CA0FB0365AEF17F7E3619CA
:101C500055EB0C05A1FB034C4CF10003A0FB021C4F
:101C600016EB0C06654153F10003094218BF46F01C
:101C7000010613F4007F0BD14FEA03314FEA053020
:101C8000340341EA155140EA16506FF003020AE0AE
:101C90004FEAC3214FEAC520F40241EA555140EA18
:101CA00056506FF0020202EB2E4201EB025585EA1C
:101CB000CE710AD05FEA440C18BF24F0004450F102
:101CC000000041F1000120EAD47040F2FE7C624540
:101CD00000D270BDA84214BF4FF080444FF0404482
:101CE000002E08BF0024BEF1806FA8BFA1F1C04143
:101CF000BDE8704080F282804FF0000001F1C041E9
:101D000001F0004170479EEA0C0F0CEA131518BF52
:101D100095EA0C0F06D04FF0000081EA030E0EF09A
:101D2000004170BD00F01CF88900013E00F007B8CA
:101D300000F009B84FEA430C5FEA5C5C08D081EA26
:101D4000030100F05BB84FEA410C5FEA5C5CF6D13E
:101D50004FF00000014970470000FF070000F87FC6
:101D60000EF1020E2EF0030E5EF8046B364205D41F
:101D7000012A43EB030515F5001F12D8012841EB9A
:101D8000010C1CF5001F0CD80ED14FEAD17C15F5C3
:101D9000001F0CEB4C0C0CF1020C08BF4CEBD37C7D
:101DA00004E04FF0080C01E04FEAD37C0CEB4C054B
:101DB00026FA05F606F00706B6F1040C06D20EEB7D
:101DC000860CBDE870404CF0010C6047DFE80CF079
:101DD000090B02024FF000414FF00000A1F5002175
:101DE00070BD19461046012851EB010418BFD4F507
:101DF000001484BF002001F0004170BD0808A0F568
:101E000000114FEA3101704743004FEAD30C4FEA0B
:101E10003C0C43401FBF40070CF1605113F0FE4FD4
:101E200070471CF0006F03D100200CF00041704798
:101E30000CF0004343EA507010B540EACC0000F0CB
:101E40000EF800BF000000924FEA0001FFF7D6BF76
:101E50004FF000414FF00000A1F5002170470EF156
:101E6000020E2EF0030E5EF8044B244204D44FEA17
:101E70004102B2F17F4F11D84FEA4003B3F17F4FD7
:101E80000CD80ED14FEAD07CB2F17F4F0CEB4C0C4A
:101E90000CF1020C08BF4CEBD17C04E04FF0080CB5
:101EA00001E04FEAD17C0CEB4C0324FA03F404F07C
:101EB0000704B4F1040C06D20EEB840CBDE810400C
:101EC0004CF0010C6047DFE80CF0070802024FF00D
:101ED0000040A0F5800010BD0846420018BFD2F1B6
:101EE000807288BF00F0004010BD4FF04070E1EEFE
:101EF000100A7047000000000102030401020304FD
:101F000006070809241F0008000000202C0000001C
:101F1000E8010008501F00082C000020A407000062
:101F20000402000800000000000000000024F4008B
:101F30000000000000000000010203040607080979
:101F40000000000000000000000000000000000091
:04000005080001AD41
:00000001FF
